{
  "_format": "hh-sol-artifact-1",
  "contractName": "JournalPayment",
  "sourceName": "contracts/JournalPayment.sol",
  "abi": [
    {
      "anonymous": false,
      "inputs": [
        {
          "indexed": true,
          "internalType": "uint256",
          "name": "paperId",
          "type": "uint256"
        },
        {
          "indexed": false,
          "internalType": "string",
          "name": "articleHash",
          "type": "string"
        }
      ],
      "name": "ArticleCreated",
      "type": "event"
    },
    {
      "anonymous": false,
      "inputs": [
        {
          "indexed": true,
          "internalType": "uint256",
          "name": "paperId",
          "type": "uint256"
        },
        {
          "indexed": true,
          "internalType": "address",
          "name": "reader",
          "type": "address"
        },
        {
          "indexed": false,
          "internalType": "uint256",
          "name": "amount",
          "type": "uint256"
        }
      ],
      "name": "PaperPurchased",
      "type": "event"
    },
    {
      "anonymous": false,
      "inputs": [
        {
          "indexed": true,
          "internalType": "uint256",
          "name": "paperId",
          "type": "uint256"
        },
        {
          "indexed": true,
          "internalType": "address",
          "name": "author",
          "type": "address"
        },
        {
          "indexed": false,
          "internalType": "string",
          "name": "title",
          "type": "string"
        },
        {
          "indexed": false,
          "internalType": "string",
          "name": "paperHash",
          "type": "string"
        },
        {
          "indexed": false,
          "internalType": "uint256",
          "name": "price",
          "type": "uint256"
        }
      ],
      "name": "PaperUploaded",
      "type": "event"
    },
    {
      "inputs": [
        {
          "internalType": "uint256",
          "name": "_paperId",
          "type": "uint256"
        },
        {
          "internalType": "address",
          "name": "_reader",
          "type": "address"
        }
      ],
      "name": "checkAccess",
      "outputs": [
        {
          "internalType": "bool",
          "name": "",
          "type": "bool"
        }
      ],
      "stateMutability": "view",
      "type": "function"
    },
    {
      "inputs": [
        {
          "internalType": "uint256",
          "name": "_paperId",
          "type": "uint256"
        }
      ],
      "name": "getPaper",
      "outputs": [
        {
          "internalType": "address",
          "name": "author",
          "type": "address"
        },
        {
          "internalType": "string",
          "name": "title",
          "type": "string"
        },
        {
          "internalType": "string",
          "name": "paperHash",
          "type": "string"
        },
        {
          "internalType": "uint256",
          "name": "price",
          "type": "uint256"
        },
        {
          "internalType": "string",
          "name": "articleHash",
          "type": "string"
        },
        {
          "internalType": "bool",
          "name": "hasArticle",
          "type": "bool"
        }
      ],
      "stateMutability": "view",
      "type": "function"
    },
    {
      "inputs": [
        {
          "internalType": "uint256",
          "name": "",
          "type": "uint256"
        },
        {
          "internalType": "address",
          "name": "",
          "type": "address"
        }
      ],
      "name": "hasPurchased",
      "outputs": [
        {
          "internalType": "bool",
          "name": "",
          "type": "bool"
        }
      ],
      "stateMutability": "view",
      "type": "function"
    },
    {
      "inputs": [],
      "name": "paperCount",
      "outputs": [
        {
          "internalType": "uint256",
          "name": "",
          "type": "uint256"
        }
      ],
      "stateMutability": "view",
      "type": "function"
    },
    {
      "inputs": [
        {
          "internalType": "uint256",
          "name": "",
          "type": "uint256"
        }
      ],
      "name": "papers",
      "outputs": [
        {
          "internalType": "address",
          "name": "author",
          "type": "address"
        },
        {
          "internalType": "string",
          "name": "title",
          "type": "string"
        },
        {
          "internalType": "string",
          "name": "paperHash",
          "type": "string"
        },
        {
          "internalType": "uint256",
          "name": "price",
          "type": "uint256"
        },
        {
          "internalType": "string",
          "name": "articleHash",
          "type": "string"
        },
        {
          "internalType": "bool",
          "name": "exists",
          "type": "bool"
        }
      ],
      "stateMutability": "view",
      "type": "function"
    },
    {
      "inputs": [
        {
          "internalType": "uint256",
          "name": "_paperId",
          "type": "uint256"
        }
      ],
      "name": "purchasePaper",
      "outputs": [],
      "stateMutability": "payable",
      "type": "function"
    },
    {
      "inputs": [
        {
          "internalType": "uint256",
          "name": "_paperId",
          "type": "uint256"
        },
        {
          "internalType": "string",
          "name": "_articleHash",
          "type": "string"
        }
      ],
      "name": "setArticle",
      "outputs": [],
      "stateMutability": "nonpayable",
      "type": "function"
    },
    {
      "inputs": [
        {
          "internalType": "string",
          "name": "_title",
          "type": "string"
        },
        {
          "internalType": "string",
          "name": "_paperHash",
          "type": "string"
        },
        {
          "internalType": "uint256",
          "name": "_price",
          "type": "uint256"
        }
      ],
      "name": "uploadPaper",
      "outputs": [
        {
          "internalType": "uint256",
          "name": "",
          "type": "uint256"
        }
      ],
      "stateMutability": "nonpayable",
      "type": "function"
    }
  ],
  "bytecode": "0x608060405234801561001057600080fd5b50611b83806100206000396000f3fe60806040526004361061007b5760003560e01c8063a56c2cb91161004e578063a56c2cb91461016a578063d13c870314610195578063dc9da2f8146101d2578063e4103a001461020f5761007b565b806307993f04146100805780633101f1cc146100c25780635e775a27146100eb5780638a21d9dc1461012d575b600080fd5b34801561008c57600080fd5b506100a760048036038101906100a29190610f05565b61022b565b6040516100b99695949392919061102d565b60405180910390f35b3480156100ce57600080fd5b506100e960048036038101906100e49190611108565b6104a0565b005b3480156100f757600080fd5b50610112600480360381019061010d9190610f05565b610633565b6040516101249695949392919061102d565b60405180910390f35b34801561013957600080fd5b50610154600480360381019061014f9190611168565b610834565b60405161016191906111fd565b60405180910390f35b34801561017657600080fd5b5061017f610ae5565b60405161018c91906111fd565b60405180910390f35b3480156101a157600080fd5b506101bc60048036038101906101b79190611244565b610aeb565b6040516101c99190611284565b60405180910390f35b3480156101de57600080fd5b506101f960048036038101906101f49190611244565b610bbe565b6040516102069190611284565b60405180910390f35b61022960048036038101906102249190610f05565b610bed565b005b60006060806000606060008060008089815260200190815260200160002090508060050160009054906101000a900460ff1661029c576040517f08c379a0000000000000000000000000000000000000000000000000000000008152600401610293906112eb565b60405180910390fd5b8060000160009054906101000a900473ffffffffffffffffffffffffffffffffffffffff16816001018260020183600301548460040160008660040180546102e39061133a565b9050118480546102f29061133a565b80601f016020809104026020016040519081016040528092919081815260200182805461031e9061133a565b801561036b5780601f106103405761010080835404028352916020019161036b565b820191906000526020600020905b81548152906001019060200180831161034e57829003601f168201915b5050505050945083805461037e9061133a565b80601f01602080910402602001604051908101604052809291908181526020018280546103aa9061133a565b80156103f75780601f106103cc576101008083540402835291602001916103f7565b820191906000526020600020905b8154815290600101906020018083116103da57829003601f168201915b5050505050935081805461040a9061133a565b80601f01602080910402602001604051908101604052809291908181526020018280546104369061133a565b80156104835780601f1061045857610100808354040283529160200191610483565b820191906000526020600020905b81548152906001019060200180831161046657829003601f168201915b505050505091509650965096509650965096505091939550919395565b600080600085815260200190815260200160002090508060050160009054906101000a900460ff16610507576040517f08c379a00000000000000000000000000000000000000000000000000000000081526004016104fe906112eb565b60405180910390fd5b8060000160009054906101000a900473ffffffffffffffffffffffffffffffffffffffff1673ffffffffffffffffffffffffffffffffffffffff163373ffffffffffffffffffffffffffffffffffffffff1614610599576040517f08c379a0000000000000000000000000000000000000000000000000000000008152600401610590906113b7565b60405180910390fd5b600083839050116105df576040517f08c379a00000000000000000000000000000000000000000000000000000000081526004016105d690611423565b60405180910390fd5b82828260040191826105f2929190611629565b50837f530582bd95b2f2e66cb9252f12b2af00a90fe6cec893b899a0e088ebebadbaf68484604051610625929190611735565b60405180910390a250505050565b60006020528060005260406000206000915090508060000160009054906101000a900473ffffffffffffffffffffffffffffffffffffffff169080600101805461067c9061133a565b80601f01602080910402602001604051908101604052809291908181526020018280546106a89061133a565b80156106f55780601f106106ca576101008083540402835291602001916106f5565b820191906000526020600020905b8154815290600101906020018083116106d857829003601f168201915b50505050509080600201805461070a9061133a565b80601f01602080910402602001604051908101604052809291908181526020018280546107369061133a565b80156107835780601f1061075857610100808354040283529160200191610783565b820191906000526020600020905b81548152906001019060200180831161076657829003601f168201915b50505050509080600301549080600401805461079e9061133a565b80601f01602080910402602001604051908101604052809291908181526020018280546107ca9061133a565b80156108175780601f106107ec57610100808354040283529160200191610817565b820191906000526020600020905b8154815290600101906020018083116107fa57829003601f168201915b5050505050908060050160009054906101000a900460ff16905086565b600080868690501161087b576040517f08c379a0000000000000000000000000000000000000000000000000000000008152600401610872906117a5565b60405180910390fd5b600084849050116108c1576040517f08c379a00000000000000000000000000000000000000000000000000000000081526004016108b890611811565b60405180910390fd5b6000600260008154809291906108d690611860565b9190505590506040518060c001604052803373ffffffffffffffffffffffffffffffffffffffff16815260200188888080601f016020809104026020016040519081016040528093929190818152602001838380828437600081840152601f19601f82011690508083019250505050505050815260200186868080601f016020809104026020016040519081016040528093929190818152602001838380828437600081840152601f19601f8201169050808301925050505050505081526020018481526020016040518060200160405280600081525081526020016001151581525060008083815260200190815260200160002060008201518160000160006101000a81548173ffffffffffffffffffffffffffffffffffffffff021916908373ffffffffffffffffffffffffffffffffffffffff1602179055506020820151816001019081610a2791906118a8565b506040820151816002019081610a3d91906118a8565b50606082015181600301556080820151816004019081610a5d91906118a8565b5060a08201518160050160006101000a81548160ff0219169083151502179055509050503373ffffffffffffffffffffffffffffffffffffffff16817fbfd00a2a614d9e228ad3781e7fd7d4501539c524ca7a97a3896d993f2fc13bb38989898989604051610ad095949392919061197a565b60405180910390a38091505095945050505050565b60025481565b60006001600084815260200190815260200160002060008373ffffffffffffffffffffffffffffffffffffffff1673ffffffffffffffffffffffffffffffffffffffff16815260200190815260200160002060009054906101000a900460ff1680610bb657508173ffffffffffffffffffffffffffffffffffffffff1660008085815260200190815260200160002060000160009054906101000a900473ffffffffffffffffffffffffffffffffffffffff1673ffffffffffffffffffffffffffffffffffffffff16145b905092915050565b60016020528160005260406000206020528060005260406000206000915091509054906101000a900460ff1681565b600080600083815260200190815260200160002090508060050160009054906101000a900460ff16610c54576040517f08c379a0000000000000000000000000000000000000000000000000000000008152600401610c4b906112eb565b60405180910390fd5b8060030154341015610c9b576040517f08c379a0000000000000000000000000000000000000000000000000000000008152600401610c9290611a0f565b60405180910390fd5b6001600083815260200190815260200160002060003373ffffffffffffffffffffffffffffffffffffffff1673ffffffffffffffffffffffffffffffffffffffff16815260200190815260200160002060009054906101000a900460ff1615610d39576040517f08c379a0000000000000000000000000000000000000000000000000000000008152600401610d3090611a7b565b60405180910390fd5b600180600084815260200190815260200160002060003373ffffffffffffffffffffffffffffffffffffffff1673ffffffffffffffffffffffffffffffffffffffff16815260200190815260200160002060006101000a81548160ff02191690831515021790555060008160000160009054906101000a900473ffffffffffffffffffffffffffffffffffffffff1673ffffffffffffffffffffffffffffffffffffffff1634604051610deb90611acc565b60006040518083038185875af1925050503d8060008114610e28576040519150601f19603f3d011682016040523d82523d6000602084013e610e2d565b606091505b5050905080610e71576040517f08c379a0000000000000000000000000000000000000000000000000000000008152600401610e6890611b2d565b60405180910390fd5b3373ffffffffffffffffffffffffffffffffffffffff16837ff78731c5fb5c344f9560510405797fcee3a41e3d92bf243a4672afa5ea86ab7e34604051610eb891906111fd565b60405180910390a3505050565b600080fd5b600080fd5b6000819050919050565b610ee281610ecf565b8114610eed57600080fd5b50565b600081359050610eff81610ed9565b92915050565b600060208284031215610f1b57610f1a610ec5565b5b6000610f2984828501610ef0565b91505092915050565b600073ffffffffffffffffffffffffffffffffffffffff82169050919050565b6000610f5d82610f32565b9050919050565b610f6d81610f52565b82525050565b600081519050919050565b600082825260208201905092915050565b60005b83811015610fad578082015181840152602081019050610f92565b60008484015250505050565b6000601f19601f8301169050919050565b6000610fd582610f73565b610fdf8185610f7e565b9350610fef818560208601610f8f565b610ff881610fb9565b840191505092915050565b61100c81610ecf565b82525050565b60008115159050919050565b61102781611012565b82525050565b600060c0820190506110426000830189610f64565b81810360208301526110548188610fca565b905081810360408301526110688187610fca565b90506110776060830186611003565b81810360808301526110898185610fca565b905061109860a083018461101e565b979650505050505050565b600080fd5b600080fd5b600080fd5b60008083601f8401126110c8576110c76110a3565b5b8235905067ffffffffffffffff8111156110e5576110e46110a8565b5b602083019150836001820283011115611101576111006110ad565b5b9250929050565b60008060006040848603121561112157611120610ec5565b5b600061112f86828701610ef0565b935050602084013567ffffffffffffffff8111156111505761114f610eca565b5b61115c868287016110b2565b92509250509250925092565b60008060008060006060868803121561118457611183610ec5565b5b600086013567ffffffffffffffff8111156111a2576111a1610eca565b5b6111ae888289016110b2565b9550955050602086013567ffffffffffffffff8111156111d1576111d0610eca565b5b6111dd888289016110b2565b935093505060406111f088828901610ef0565b9150509295509295909350565b60006020820190506112126000830184611003565b92915050565b61122181610f52565b811461122c57600080fd5b50565b60008135905061123e81611218565b92915050565b6000806040838503121561125b5761125a610ec5565b5b600061126985828601610ef0565b925050602061127a8582860161122f565b9150509250929050565b6000602082019050611299600083018461101e565b92915050565b7f5061706572206e6f7420666f756e640000000000000000000000000000000000600082015250565b60006112d5600f83610f7e565b91506112e08261129f565b602082019050919050565b60006020820190508181036000830152611304816112c8565b9050919050565b7f4e487b7100000000000000000000000000000000000000000000000000000000600052602260045260246000fd5b6000600282049050600182168061135257607f821691505b6020821081036113655761136461130b565b5b50919050565b7f4f6e6c7920617574686f72000000000000000000000000000000000000000000600082015250565b60006113a1600b83610f7e565b91506113ac8261136b565b602082019050919050565b600060208201905081810360008301526113d081611394565b9050919050565b7f41727469636c6520686173682072657175697265640000000000000000000000600082015250565b600061140d601583610f7e565b9150611418826113d7565b602082019050919050565b6000602082019050818103600083015261143c81611400565b9050919050565b600082905092915050565b7f4e487b7100000000000000000000000000000000000000000000000000000000600052604160045260246000fd5b60008190508160005260206000209050919050565b60006020601f8301049050919050565b600082821b905092915050565b6000600883026114df7fffffffffffffffffffffffffffffffffffffffffffffffffffffffffffffffff826114a2565b6114e986836114a2565b95508019841693508086168417925050509392505050565b6000819050919050565b600061152661152161151c84610ecf565b611501565b610ecf565b9050919050565b6000819050919050565b6115408361150b565b61155461154c8261152d565b8484546114af565b825550505050565b600090565b61156961155c565b611574818484611537565b505050565b5b818110156115985761158d600082611561565b60018101905061157a565b5050565b601f8211156115dd576115ae8161147d565b6115b784611492565b810160208510156115c6578190505b6115da6115d285611492565b830182611579565b50505b505050565b600082821c905092915050565b6000611600600019846008026115e2565b1980831691505092915050565b600061161983836115ef565b9150826002028217905092915050565b6116338383611443565b67ffffffffffffffff81111561164c5761164b61144e565b5b611656825461133a565b61166182828561159c565b6000601f831160018114611690576000841561167e578287013590505b611688858261160d565b8655506116f0565b601f19841661169e8661147d565b60005b828110156116c6578489013582556001820191506020850194506020810190506116a1565b868310156116e357848901356116df601f8916826115ef565b8355505b6001600288020188555050505b50505050505050565b82818337600083830152505050565b60006117148385610f7e565b93506117218385846116f9565b61172a83610fb9565b840190509392505050565b60006020820190508181036000830152611750818486611708565b90509392505050565b7f5469746c65207265717569726564000000000000000000000000000000000000600082015250565b600061178f600e83610f7e565b915061179a82611759565b602082019050919050565b600060208201905081810360008301526117be81611782565b9050919050565b7f5061706572206861736820726571756972656400000000000000000000000000600082015250565b60006117fb601383610f7e565b9150611806826117c5565b602082019050919050565b6000602082019050818103600083015261182a816117ee565b9050919050565b7f4e487b7100000000000000000000000000000000000000000000000000000000600052601160045260246000fd5b600061186b82610ecf565b91507fffffffffffffffffffffffffffffffffffffffffffffffffffffffffffffffff820361189d5761189c611831565b5b600182019050919050565b6118b182610f73565b67ffffffffffffffff8111156118ca576118c961144e565b5b6118d4825461133a565b6118df82828561159c565b600060209050601f8311600181146119125760008415611900578287015190505b61190a858261160d565b865550611972565b601f1984166119208661147d565b60005b8281101561194857848901518255600182019150602085019450602081019050611923565b868310156119655784890151611961601f8916826115ef565b8355505b6001600288020188555050505b505050505050565b60006060820190508181036000830152611995818789611708565b905081810360208301526119aa818587611708565b90506119b96040830184611003565b9695505050505050565b7f496e73756666696369656e74207061796d656e74000000000000000000000000600082015250565b60006119f9601483610f7e565b9150611a04826119c3565b602082019050919050565b60006020820190508181036000830152611a28816119ec565b9050919050565b7f416c726561647920707572636861736564000000000000000000000000000000600082015250565b6000611a65601183610f7e565b9150611a7082611a2f565b602082019050919050565b60006020820190508181036000830152611a9481611a58565b9050919050565b600081905092915050565b50565b6000611ab6600083611a9b565b9150611ac182611aa6565b600082019050919050565b6000611ad782611aa9565b9150819050919050565b7f5061796d656e74206661696c6564000000000000000000000000000000000000600082015250565b6000611b17600e83610f7e565b9150611b2282611ae1565b602082019050919050565b60006020820190508181036000830152611b4681611b0a565b905091905056fea26469706673582212205524f4de0becbc7501e0079280cb0f44c8e08d484a402ea815760bd1c82d95c564736f6c63430008140033",
  "linkReferences": {},
  "deployedLinkReferences": {}
}