{
  "_format": "hh-sol-artifact-1",
  "contractName": "ResearchNFT",
  "sourceName": "contracts/ResearchNFT.sol",
  "abi": [
    {
      "inputs": [],
      "stateMutability": "nonpayable",
      "type": "constructor"
    },
    {
      "inputs": [
        {
          "internalType": "address",
          "name": "sender",
          "type": "address"
        },
        {
          "internalType": "uint256",
          "name": "tokenId",
          "type": "uint256"
        },
        {
          "internalType": "address",
          "name": "owner",
          "type": "address"
        }
      ],
      "name": "ERC721IncorrectOwner",
      "type": "error"
    },
    {
      "inputs": [
        {
          "internalType": "address",
          "name": "operator",
          "type": "address"
        },
        {
          "internalType": "uint256",
          "name": "tokenId",
          "type": "uint256"
        }
      ],
      "name": "ERC721InsufficientApproval",
      "type": "error"
    },
    {
      "inputs": [
        {
          "internalType": "address",
          "name": "approver",
          "type": "address"
        }
      ],
      "name": "ERC721InvalidApprover",
      "type": "error"
    },
    {
      "inputs": [
        {
          "internalType": "address",
          "name": "operator",
          "type": "address"
        }
      ],
      "name": "ERC721InvalidOperator",
      "type": "error"
    },
    {
      "inputs": [
        {
          "internalType": "address",
          "name": "owner",
          "type": "address"
        }
      ],
      "name": "ERC721InvalidOwner",
      "type": "error"
    },
    {
      "inputs": [
        {
          "internalType": "address",
          "name": "receiver",
          "type": "address"
        }
      ],
      "name": "ERC721InvalidReceiver",
      "type": "error"
    },
    {
      "inputs": [
        {
          "internalType": "address",
          "name": "sender",
          "type": "address"
        }
      ],
      "name": "ERC721InvalidSender",
      "type": "error"
    },
    {
      "inputs": [
        {
          "internalType": "uint256",
          "name": "tokenId",
          "type": "uint256"
        }
      ],
      "name": "ERC721NonexistentToken",
      "type": "error"
    },
    {
      "inputs": [
        {
          "internalType": "address",
          "name": "owner",
          "type": "address"
        }
      ],
      "name": "OwnableInvalidOwner",
      "type": "error"
    },
    {
      "inputs": [
        {
          "internalType": "address",
          "name": "account",
          "type": "address"
        }
      ],
      "name": "OwnableUnauthorizedAccount",
      "type": "error"
    },
    {
      "anonymous": false,
      "inputs": [
        {
          "indexed": true,
          "internalType": "address",
          "name": "owner",
          "type": "address"
        },
        {
          "indexed": true,
          "internalType": "address",
          "name": "approved",
          "type": "address"
        },
        {
          "indexed": true,
          "internalType": "uint256",
          "name": "tokenId",
          "type": "uint256"
        }
      ],
      "name": "Approval",
      "type": "event"
    },
    {
      "anonymous": false,
      "inputs": [
        {
          "indexed": true,
          "internalType": "address",
          "name": "owner",
          "type": "address"
        },
        {
          "indexed": true,
          "internalType": "address",
          "name": "operator",
          "type": "address"
        },
        {
          "indexed": false,
          "internalType": "bool",
          "name": "approved",
          "type": "bool"
        }
      ],
      "name": "ApprovalForAll",
      "type": "event"
    },
    {
      "anonymous": false,
      "inputs": [
        {
          "indexed": true,
          "internalType": "address",
          "name": "previousOwner",
          "type": "address"
        },
        {
          "indexed": true,
          "internalType": "address",
          "name": "newOwner",
          "type": "address"
        }
      ],
      "name": "OwnershipTransferred",
      "type": "event"
    },
    {
      "anonymous": false,
      "inputs": [
        {
          "indexed": true,
          "internalType": "uint256",
          "name": "tokenId",
          "type": "uint256"
        },
        {
          "indexed": true,
          "internalType": "uint256",
          "name": "paperId",
          "type": "uint256"
        },
        {
          "indexed": false,
          "internalType": "bytes32",
          "name": "storageRoot",
          "type": "bytes32"
        },
        {
          "indexed": false,
          "internalType": "address",
          "name": "researcher",
          "type": "address"
        },
        {
          "indexed": false,
          "internalType": "uint256",
          "name": "timestamp",
          "type": "uint256"
        }
      ],
      "name": "ResearchMinted",
      "type": "event"
    },
    {
      "anonymous": false,
      "inputs": [
        {
          "indexed": true,
          "internalType": "address",
          "name": "from",
          "type": "address"
        },
        {
          "indexed": true,
          "internalType": "address",
          "name": "to",
          "type": "address"
        },
        {
          "indexed": true,
          "internalType": "uint256",
          "name": "tokenId",
          "type": "uint256"
        }
      ],
      "name": "Transfer",
      "type": "event"
    },
    {
      "inputs": [
        {
          "internalType": "address",
          "name": "to",
          "type": "address"
        },
        {
          "internalType": "uint256",
          "name": "tokenId",
          "type": "uint256"
        }
      ],
      "name": "approve",
      "outputs": [],
      "stateMutability": "nonpayable",
      "type": "function"
    },
    {
      "inputs": [
        {
          "internalType": "address",
          "name": "owner",
          "type": "address"
        }
      ],
      "name": "balanceOf",
      "outputs": [
        {
          "internalType": "uint256",
          "name": "",
          "type": "uint256"
        }
      ],
      "stateMutability": "view",
      "type": "function"
    },
    {
      "inputs": [
        {
          "internalType": "uint256",
          "name": "tokenId",
          "type": "uint256"
        }
      ],
      "name": "getApproved",
      "outputs": [
        {
          "internalType": "address",
          "name": "",
          "type": "address"
        }
      ],
      "stateMutability": "view",
      "type": "function"
    },
    {
      "inputs": [
        {
          "internalType": "uint256",
          "name": "tokenId",
          "type": "uint256"
        }
      ],
      "name": "getResearchToken",
      "outputs": [
        {
          "components": [
            {
              "internalType": "uint256",
              "name": "tokenId",
              "type": "uint256"
            },
            {
              "internalType": "uint256",
              "name": "paperId",
              "type": "uint256"
            },
            {
              "internalType": "bytes32",
              "name": "storageRoot",
              "type": "bytes32"
            },
            {
              "internalType": "bytes32",
              "name": "curationHash",
              "type": "bytes32"
            },
            {
              "internalType": "string",
              "name": "metadataURI",
              "type": "string"
            },
            {
              "internalType": "address",
              "name": "researcher",
              "type": "address"
            },
            {
              "internalType": "uint256",
              "name": "mintedAt",
              "type": "uint256"
            }
          ],
          "internalType": "struct ResearchNFT.ResearchToken",
          "name": "",
          "type": "tuple"
        }
      ],
      "stateMutability": "view",
      "type": "function"
    },
    {
      "inputs": [
        {
          "internalType": "uint256",
          "name": "paperId",
          "type": "uint256"
        }
      ],
      "name": "getTokenByPaper",
      "outputs": [
        {
          "components": [
            {
              "internalType": "uint256",
              "name": "tokenId",
              "type": "uint256"
            },
            {
              "internalType": "uint256",
              "name": "paperId",
              "type": "uint256"
            },
            {
              "internalType": "bytes32",
              "name": "storageRoot",
              "type": "bytes32"
            },
            {
              "internalType": "bytes32",
              "name": "curationHash",
              "type": "bytes32"
            },
            {
              "internalType": "string",
              "name": "metadataURI",
              "type": "string"
            },
            {
              "internalType": "address",
              "name": "researcher",
              "type": "address"
            },
            {
              "internalType": "uint256",
              "name": "mintedAt",
              "type": "uint256"
            }
          ],
          "internalType": "struct ResearchNFT.ResearchToken",
          "name": "",
          "type": "tuple"
        }
      ],
      "stateMutability": "view",
      "type": "function"
    },
    {
      "inputs": [
        {
          "internalType": "address",
          "name": "owner",
          "type": "address"
        },
        {
          "internalType": "address",
          "name": "operator",
          "type": "address"
        }
      ],
      "name": "isApprovedForAll",
      "outputs": [
        {
          "internalType": "bool",
          "name": "",
          "type": "bool"
        }
      ],
      "stateMutability": "view",
      "type": "function"
    },
    {
      "inputs": [
        {
          "internalType": "address",
          "name": "to",
          "type": "address"
        },
        {
          "internalType": "uint256",
          "name": "paperId",
          "type": "uint256"
        },
        {
          "internalType": "bytes32",
          "name": "storageRoot",
          "type": "bytes32"
        },
        {
          "internalType": "bytes32",
          "name": "curationHash",
          "type": "bytes32"
        },
        {
          "internalType": "string",
          "name": "metadataURI",
          "type": "string"
        }
      ],
      "name": "mintResearch",
      "outputs": [
        {
          "internalType": "uint256",
          "name": "",
          "type": "uint256"
        }
      ],
      "stateMutability": "nonpayable",
      "type": "function"
    },
    {
      "inputs": [],
      "name": "name",
      "outputs": [
        {
          "internalType": "string",
          "name": "",
          "type": "string"
        }
      ],
      "stateMutability": "view",
      "type": "function"
    },
    {
      "inputs": [],
      "name": "owner",
      "outputs": [
        {
          "internalType": "address",
          "name": "",
          "type": "address"
        }
      ],
      "stateMutability": "view",
      "type": "function"
    },
    {
      "inputs": [
        {
          "internalType": "uint256",
          "name": "tokenId",
          "type": "uint256"
        }
      ],
      "name": "ownerOf",
      "outputs": [
        {
          "internalType": "address",
          "name": "",
          "type": "address"
        }
      ],
      "stateMutability": "view",
      "type": "function"
    },
    {
      "inputs": [
        {
          "internalType": "uint256",
          "name": "",
          "type": "uint256"
        }
      ],
      "name": "paperToToken",
      "outputs": [
        {
          "internalType": "uint256",
          "name": "",
          "type": "uint256"
        }
      ],
      "stateMutability": "view",
      "type": "function"
    },
    {
      "inputs": [],
      "name": "renounceOwnership",
      "outputs": [],
      "stateMutability": "nonpayable",
      "type": "function"
    },
    {
      "inputs": [
        {
          "internalType": "address",
          "name": "from",
          "type": "address"
        },
        {
          "internalType": "address",
          "name": "to",
          "type": "address"
        },
        {
          "internalType": "uint256",
          "name": "tokenId",
          "type": "uint256"
        }
      ],
      "name": "safeTransferFrom",
      "outputs": [],
      "stateMutability": "nonpayable",
      "type": "function"
    },
    {
      "inputs": [
        {
          "internalType": "address",
          "name": "from",
          "type": "address"
        },
        {
          "internalType": "address",
          "name": "to",
          "type": "address"
        },
        {
          "internalType": "uint256",
          "name": "tokenId",
          "type": "uint256"
        },
        {
          "internalType": "bytes",
          "name": "data",
          "type": "bytes"
        }
      ],
      "name": "safeTransferFrom",
      "outputs": [],
      "stateMutability": "nonpayable",
      "type": "function"
    },
    {
      "inputs": [
        {
          "internalType": "address",
          "name": "operator",
          "type": "address"
        },
        {
          "internalType": "bool",
          "name": "approved",
          "type": "bool"
        }
      ],
      "name": "setApprovalForAll",
      "outputs": [],
      "stateMutability": "nonpayable",
      "type": "function"
    },
    {
      "inputs": [
        {
          "internalType": "bytes4",
          "name": "interfaceId",
          "type": "bytes4"
        }
      ],
      "name": "supportsInterface",
      "outputs": [
        {
          "internalType": "bool",
          "name": "",
          "type": "bool"
        }
      ],
      "stateMutability": "view",
      "type": "function"
    },
    {
      "inputs": [],
      "name": "symbol",
      "outputs": [
        {
          "internalType": "string",
          "name": "",
          "type": "string"
        }
      ],
      "stateMutability": "view",
      "type": "function"
    },
    {
      "inputs": [
        {
          "internalType": "uint256",
          "name": "tokenId",
          "type": "uint256"
        }
      ],
      "name": "tokenURI",
      "outputs": [
        {
          "internalType": "string",
          "name": "",
          "type": "string"
        }
      ],
      "stateMutability": "view",
      "type": "function"
    },
    {
      "inputs": [
        {
          "internalType": "uint256",
          "name": "",
          "type": "uint256"
        }
      ],
      "name": "tokens",
      "outputs": [
        {
          "internalType": "uint256",
          "name": "tokenId",
          "type": "uint256"
        },
        {
          "internalType": "uint256",
          "name": "paperId",
          "type": "uint256"
        },
        {
          "internalType": "bytes32",
          "name": "storageRoot",
          "type": "bytes32"
        },
        {
          "internalType": "bytes32",
          "name": "curationHash",
          "type": "bytes32"
        },
        {
          "internalType": "string",
          "name": "metadataURI",
          "type": "string"
        },
        {
          "internalType": "address",
          "name": "researcher",
          "type": "address"
        },
        {
          "internalType": "uint256",
          "name": "mintedAt",
          "type": "uint256"
        }
      ],
      "stateMutability": "view",
      "type": "function"
    },
    {
      "inputs": [],
      "name": "totalSupply",
      "outputs": [
        {
          "internalType": "uint256",
          "name": "",
          "type": "uint256"
        }
      ],
      "stateMutability": "view",
      "type": "function"
    },
    {
      "inputs": [
        {
          "internalType": "address",
          "name": "from",
          "type": "address"
        },
        {
          "internalType": "address",
          "name": "to",
          "type": "address"
        },
        {
          "internalType": "uint256",
          "name": "tokenId",
          "type": "uint256"
        }
      ],
      "name": "transferFrom",
      "outputs": [],
      "stateMutability": "nonpayable",
      "type": "function"
    },
    {
      "inputs": [
        {
          "internalType": "address",
          "name": "newOwner",
          "type": "address"
        }
      ],
      "name": "transferOwnership",
      "outputs": [],
      "stateMutability": "nonpayable",
      "type": "function"
    }
  ],
  "bytecode": "0x60806040523480156200001157600080fd5b50336040518060400160405280601681526020017f52756d616850656e656c697469205265736561726368000000000000000000008152506040518060400160405280600381526020017f5250520000000000000000000000000000000000000000000000000000000000815250816000908162000090919062000472565b508060019081620000a2919062000472565b505050600073ffffffffffffffffffffffffffffffffffffffff168173ffffffffffffffffffffffffffffffffffffffff16036200011a5760006040517f1e4fbdf70000000000000000000000000000000000000000000000000000000081526004016200011191906200059e565b60405180910390fd5b6200012b816200013260201b60201c565b50620005bb565b6000600660009054906101000a900473ffffffffffffffffffffffffffffffffffffffff16905081600660006101000a81548173ffffffffffffffffffffffffffffffffffffffff021916908373ffffffffffffffffffffffffffffffffffffffff1602179055508173ffffffffffffffffffffffffffffffffffffffff168173ffffffffffffffffffffffffffffffffffffffff167f8be0079c531659141344cd1fd0a4f28419497f9722a3daafe3b4186f6b6457e060405160405180910390a35050565b600081519050919050565b7f4e487b7100000000000000000000000000000000000000000000000000000000600052604160045260246000fd5b7f4e487b7100000000000000000000000000000000000000000000000000000000600052602260045260246000fd5b600060028204905060018216806200027a57607f821691505b60208210810362000290576200028f62000232565b5b50919050565b60008190508160005260206000209050919050565b60006020601f8301049050919050565b600082821b905092915050565b600060088302620002fa7fffffffffffffffffffffffffffffffffffffffffffffffffffffffffffffffff82620002bb565b620003068683620002bb565b95508019841693508086168417925050509392505050565b6000819050919050565b6000819050919050565b6000620003536200034d62000347846200031e565b62000328565b6200031e565b9050919050565b6000819050919050565b6200036f8362000332565b620003876200037e826200035a565b848454620002c8565b825550505050565b600090565b6200039e6200038f565b620003ab81848462000364565b505050565b5b81811015620003d357620003c760008262000394565b600181019050620003b1565b5050565b601f8211156200042257620003ec8162000296565b620003f784620002ab565b8101602085101562000407578190505b6200041f6200041685620002ab565b830182620003b0565b50505b505050565b600082821c905092915050565b6000620004476000198460080262000427565b1980831691505092915050565b600062000462838362000434565b9150826002028217905092915050565b6200047d82620001f8565b67ffffffffffffffff81111562000499576200049862000203565b5b620004a5825462000261565b620004b2828285620003d7565b600060209050601f831160018114620004ea5760008415620004d5578287015190505b620004e1858262000454565b86555062000551565b601f198416620004fa8662000296565b60005b828110156200052457848901518255600182019150602085019450602081019050620004fd565b8683101562000544578489015162000540601f89168262000434565b8355505b6001600288020188555050505b505050505050565b600073ffffffffffffffffffffffffffffffffffffffff82169050919050565b6000620005868262000559565b9050919050565b620005988162000579565b82525050565b6000602082019050620005b560008301846200058d565b92915050565b612e6380620005cb6000396000f3fe608060405234801561001057600080fd5b50600436106101425760003560e01c8063715018a6116100b8578063b88d4fde1161007c578063b88d4fde1461038f578063c56ae3b5146103ab578063c87b56dd146103db578063e654bbb81461040b578063e985e9c51461043b578063f2fde38b1461046b57610142565b8063715018a6146102fd5780638bbc4247146103075780638da5cb5b1461033757806395d89b4114610355578063a22cb4651461037357610142565b806323b872dd1161010a57806323b872dd146101ff57806337cf8f291461021b57806342842e0e1461024b5780634f64b2be146102675780636352211e1461029d57806370a08231146102cd57610142565b806301ffc9a71461014757806306fdde0314610177578063081812fc14610195578063095ea7b3146101c557806318160ddd146101e1575b600080fd5b610161600480360381019061015c9190611f76565b610487565b60405161016e9190611fbe565b60405180910390f35b61017f610569565b60405161018c9190612069565b60405180910390f35b6101af60048036038101906101aa91906120c1565b6105fb565b6040516101bc919061212f565b60405180910390f35b6101df60048036038101906101da9190612176565b610617565b005b6101e961062d565b6040516101f691906121c5565b60405180910390f35b610219600480360381019061021491906121e0565b610637565b005b610235600480360381019061023091906120c1565b610739565b6040516102429190612350565b60405180910390f35b610265600480360381019061026091906121e0565b6108f7565b005b610281600480360381019061027c91906120c1565b610917565b6040516102949796959493929190612381565b60405180910390f35b6102b760048036038101906102b291906120c1565b610a01565b6040516102c4919061212f565b60405180910390f35b6102e760048036038101906102e291906123f7565b610a13565b6040516102f491906121c5565b60405180910390f35b610305610acd565b005b610321600480360381019061031c91906120c1565b610ae1565b60405161032e9190612350565b60405180910390f35b61033f610c84565b60405161034c919061212f565b60405180910390f35b61035d610cae565b60405161036a9190612069565b60405180910390f35b61038d60048036038101906103889190612450565b610d40565b005b6103a960048036038101906103a491906125c5565b610d56565b005b6103c560048036038101906103c091906126d4565b610d73565b6040516103d291906121c5565b60405180910390f35b6103f560048036038101906103f091906120c1565b610fd0565b6040516104029190612069565b60405180910390f35b610425600480360381019061042091906120c1565b6110ef565b60405161043291906121c5565b60405180910390f35b6104556004803603810190610450919061276e565b611107565b6040516104629190611fbe565b60405180910390f35b610485600480360381019061048091906123f7565b61119b565b005b60007f80ac58cd000000000000000000000000000000000000000000000000000000007bffffffffffffffffffffffffffffffffffffffffffffffffffffffff1916827bffffffffffffffffffffffffffffffffffffffffffffffffffffffff1916148061055257507f5b5e139f000000000000000000000000000000000000000000000000000000007bffffffffffffffffffffffffffffffffffffffffffffffffffffffff1916827bffffffffffffffffffffffffffffffffffffffffffffffffffffffff1916145b80610562575061056182611221565b5b9050919050565b606060008054610578906127dd565b80601f01602080910402602001604051908101604052809291908181526020018280546105a4906127dd565b80156105f15780601f106105c6576101008083540402835291602001916105f1565b820191906000526020600020905b8154815290600101906020018083116105d457829003601f168201915b5050505050905090565b60006106068261128b565b5061061082611313565b9050919050565b6106298282610624611350565b611358565b5050565b6000600754905090565b600073ffffffffffffffffffffffffffffffffffffffff168273ffffffffffffffffffffffffffffffffffffffff16036106a95760006040517f64a0ae920000000000000000000000000000000000000000000000000000000081526004016106a0919061212f565b60405180910390fd5b60006106bd83836106b8611350565b61136a565b90508373ffffffffffffffffffffffffffffffffffffffff168173ffffffffffffffffffffffffffffffffffffffff1614610733578382826040517f64283d7b00000000000000000000000000000000000000000000000000000000815260040161072a9392919061280e565b60405180910390fd5b50505050565b610741611eb1565b600073ffffffffffffffffffffffffffffffffffffffff1661076283610a01565b73ffffffffffffffffffffffffffffffffffffffff16036107b8576040517f08c379a00000000000000000000000000000000000000000000000000000000081526004016107af90612891565b60405180910390fd5b600860008381526020019081526020016000206040518060e00160405290816000820154815260200160018201548152602001600282015481526020016003820154815260200160048201805461080e906127dd565b80601f016020809104026020016040519081016040528092919081815260200182805461083a906127dd565b80156108875780601f1061085c57610100808354040283529160200191610887565b820191906000526020600020905b81548152906001019060200180831161086a57829003601f168201915b505050505081526020016005820160009054906101000a900473ffffffffffffffffffffffffffffffffffffffff1673ffffffffffffffffffffffffffffffffffffffff1673ffffffffffffffffffffffffffffffffffffffff1681526020016006820154815250509050919050565b61091283838360405180602001604052806000815250610d56565b505050565b6008602052806000526040600020600091509050806000015490806001015490806002015490806003015490806004018054610952906127dd565b80601f016020809104026020016040519081016040528092919081815260200182805461097e906127dd565b80156109cb5780601f106109a0576101008083540402835291602001916109cb565b820191906000526020600020905b8154815290600101906020018083116109ae57829003601f168201915b5050505050908060050160009054906101000a900473ffffffffffffffffffffffffffffffffffffffff16908060060154905087565b6000610a0c8261128b565b9050919050565b60008073ffffffffffffffffffffffffffffffffffffffff168273ffffffffffffffffffffffffffffffffffffffff1603610a865760006040517f89c62b64000000000000000000000000000000000000000000000000000000008152600401610a7d919061212f565b60405180910390fd5b600360008373ffffffffffffffffffffffffffffffffffffffff1673ffffffffffffffffffffffffffffffffffffffff168152602001908152602001600020549050919050565b610ad5611584565b610adf600061160b565b565b610ae9611eb1565b60006009600084815260200190815260200160002054905060008103610b44576040517f08c379a0000000000000000000000000000000000000000000000000000000008152600401610b3b906128fd565b60405180910390fd5b600860008281526020019081526020016000206040518060e001604052908160008201548152602001600182015481526020016002820154815260200160038201548152602001600482018054610b9a906127dd565b80601f0160208091040260200160405190810160405280929190818152602001828054610bc6906127dd565b8015610c135780601f10610be857610100808354040283529160200191610c13565b820191906000526020600020905b815481529060010190602001808311610bf657829003601f168201915b505050505081526020016005820160009054906101000a900473ffffffffffffffffffffffffffffffffffffffff1673ffffffffffffffffffffffffffffffffffffffff1673ffffffffffffffffffffffffffffffffffffffff168152602001600682015481525050915050919050565b6000600660009054906101000a900473ffffffffffffffffffffffffffffffffffffffff16905090565b606060018054610cbd906127dd565b80601f0160208091040260200160405190810160405280929190818152602001828054610ce9906127dd565b8015610d365780601f10610d0b57610100808354040283529160200191610d36565b820191906000526020600020905b815481529060010190602001808311610d1957829003601f168201915b5050505050905090565b610d52610d4b611350565b83836116d1565b5050565b610d61848484610637565b610d6d84848484611840565b50505050565b6000610d7d611584565b6000600960008881526020019081526020016000205414610dd3576040517f08c379a0000000000000000000000000000000000000000000000000000000008152600401610dca90612969565b60405180910390fd5b6000801b8503610e18576040517f08c379a0000000000000000000000000000000000000000000000000000000008152600401610e0f906129d5565b60405180910390fd5b6000600760008154610e2990612a24565b91905081905590506040518060e0016040528082815260200188815260200187815260200186815260200185858080601f016020809104026020016040519081016040528093929190818152602001838380828437600081840152601f19601f8201169050808301925050505050505081526020018973ffffffffffffffffffffffffffffffffffffffff1681526020014281525060086000838152602001908152602001600020600082015181600001556020820151816001015560408201518160020155606082015181600301556080820151816004019081610f0e9190612c18565b5060a08201518160050160006101000a81548173ffffffffffffffffffffffffffffffffffffffff021916908373ffffffffffffffffffffffffffffffffffffffff16021790555060c08201518160060155905050806009600089815260200190815260200160002081905550610f8588826119f7565b86817ff970960cbdf01b8e481eacb42e64fef0d7e26b9ed1600d478ad9b2c6ba500f79888b42604051610fba93929190612cea565b60405180910390a3809150509695505050505050565b6060600073ffffffffffffffffffffffffffffffffffffffff16610ff383610a01565b73ffffffffffffffffffffffffffffffffffffffff1603611049576040517f08c379a000000000000000000000000000000000000000000000000000000000815260040161104090612891565b60405180910390fd5b60086000838152602001908152602001600020600401805461106a906127dd565b80601f0160208091040260200160405190810160405280929190818152602001828054611096906127dd565b80156110e35780601f106110b8576101008083540402835291602001916110e3565b820191906000526020600020905b8154815290600101906020018083116110c657829003601f168201915b50505050509050919050565b60096020528060005260406000206000915090505481565b6000600560008473ffffffffffffffffffffffffffffffffffffffff1673ffffffffffffffffffffffffffffffffffffffff16815260200190815260200160002060008373ffffffffffffffffffffffffffffffffffffffff1673ffffffffffffffffffffffffffffffffffffffff16815260200190815260200160002060009054906101000a900460ff16905092915050565b6111a3611584565b600073ffffffffffffffffffffffffffffffffffffffff168173ffffffffffffffffffffffffffffffffffffffff16036112155760006040517f1e4fbdf700000000000000000000000000000000000000000000000000000000815260040161120c919061212f565b60405180910390fd5b61121e8161160b565b50565b60007f01ffc9a7000000000000000000000000000000000000000000000000000000007bffffffffffffffffffffffffffffffffffffffffffffffffffffffff1916827bffffffffffffffffffffffffffffffffffffffffffffffffffffffff1916149050919050565b60008061129783611a15565b9050600073ffffffffffffffffffffffffffffffffffffffff168173ffffffffffffffffffffffffffffffffffffffff160361130a57826040517f7e27328900000000000000000000000000000000000000000000000000000000815260040161130191906121c5565b60405180910390fd5b80915050919050565b60006004600083815260200190815260200160002060009054906101000a900473ffffffffffffffffffffffffffffffffffffffff169050919050565b600033905090565b6113658383836001611a52565b505050565b60008061137684611a15565b9050600073ffffffffffffffffffffffffffffffffffffffff168373ffffffffffffffffffffffffffffffffffffffff16146113b8576113b7818486611c17565b5b600073ffffffffffffffffffffffffffffffffffffffff168173ffffffffffffffffffffffffffffffffffffffff1614611449576113fa600085600080611a52565b6001600360008373ffffffffffffffffffffffffffffffffffffffff1673ffffffffffffffffffffffffffffffffffffffff168152602001908152602001600020600082825403925050819055505b600073ffffffffffffffffffffffffffffffffffffffff168573ffffffffffffffffffffffffffffffffffffffff16146114cc576001600360008773ffffffffffffffffffffffffffffffffffffffff1673ffffffffffffffffffffffffffffffffffffffff168152602001908152602001600020600082825401925050819055505b846002600086815260200190815260200160002060006101000a81548173ffffffffffffffffffffffffffffffffffffffff021916908373ffffffffffffffffffffffffffffffffffffffff160217905550838573ffffffffffffffffffffffffffffffffffffffff168273ffffffffffffffffffffffffffffffffffffffff167fddf252ad1be2c89b69c2b068fc378daa952ba7f163c4a11628f55a4df523b3ef60405160405180910390a4809150509392505050565b61158c611350565b73ffffffffffffffffffffffffffffffffffffffff166115aa610c84565b73ffffffffffffffffffffffffffffffffffffffff1614611609576115cd611350565b6040517f118cdaa7000000000000000000000000000000000000000000000000000000008152600401611600919061212f565b60405180910390fd5b565b6000600660009054906101000a900473ffffffffffffffffffffffffffffffffffffffff16905081600660006101000a81548173ffffffffffffffffffffffffffffffffffffffff021916908373ffffffffffffffffffffffffffffffffffffffff1602179055508173ffffffffffffffffffffffffffffffffffffffff168173ffffffffffffffffffffffffffffffffffffffff167f8be0079c531659141344cd1fd0a4f28419497f9722a3daafe3b4186f6b6457e060405160405180910390a35050565b600073ffffffffffffffffffffffffffffffffffffffff168273ffffffffffffffffffffffffffffffffffffffff160361174257816040517f5b08ba18000000000000000000000000000000000000000000000000000000008152600401611739919061212f565b60405180910390fd5b80600560008573ffffffffffffffffffffffffffffffffffffffff1673ffffffffffffffffffffffffffffffffffffffff16815260200190815260200160002060008473ffffffffffffffffffffffffffffffffffffffff1673ffffffffffffffffffffffffffffffffffffffff16815260200190815260200160002060006101000a81548160ff0219169083151502179055508173ffffffffffffffffffffffffffffffffffffffff168373ffffffffffffffffffffffffffffffffffffffff167f17307eab39ab6107e8899845ad3d59bd9653f200f220920489ca2b5937696c31836040516118339190611fbe565b60405180910390a3505050565b60008373ffffffffffffffffffffffffffffffffffffffff163b11156119f1578273ffffffffffffffffffffffffffffffffffffffff1663150b7a02611884611350565b8685856040518563ffffffff1660e01b81526004016118a69493929190612d76565b6020604051808303816000875af19250505080156118e257506040513d601f19601f820116820180604052508101906118df9190612dd7565b60015b611966573d8060008114611912576040519150601f19603f3d011682016040523d82523d6000602084013e611917565b606091505b50600081510361195e57836040517f64a0ae92000000000000000000000000000000000000000000000000000000008152600401611955919061212f565b60405180910390fd5b805181602001fd5b63150b7a0260e01b7bffffffffffffffffffffffffffffffffffffffffffffffffffffffff1916817bffffffffffffffffffffffffffffffffffffffffffffffffffffffff1916146119ef57836040517f64a0ae920000000000000000000000000000000000000000000000000000000081526004016119e6919061212f565b60405180910390fd5b505b50505050565b611a11828260405180602001604052806000815250611cdb565b5050565b60006002600083815260200190815260200160002060009054906101000a900473ffffffffffffffffffffffffffffffffffffffff169050919050565b8080611a8b5750600073ffffffffffffffffffffffffffffffffffffffff168273ffffffffffffffffffffffffffffffffffffffff1614155b15611bbf576000611a9b8461128b565b9050600073ffffffffffffffffffffffffffffffffffffffff168373ffffffffffffffffffffffffffffffffffffffff1614158015611b0657508273ffffffffffffffffffffffffffffffffffffffff168173ffffffffffffffffffffffffffffffffffffffff1614155b8015611b195750611b178184611107565b155b15611b5b57826040517fa9fbf51f000000000000000000000000000000000000000000000000000000008152600401611b52919061212f565b60405180910390fd5b8115611bbd57838573ffffffffffffffffffffffffffffffffffffffff168273ffffffffffffffffffffffffffffffffffffffff167f8c5be1e5ebec7d5bd14f71427d1e84f3dd0314c0f7b2291e5b200ac8c7c3b92560405160405180910390a45b505b836004600085815260200190815260200160002060006101000a81548173ffffffffffffffffffffffffffffffffffffffff021916908373ffffffffffffffffffffffffffffffffffffffff16021790555050505050565b611c22838383611cf7565b611cd657600073ffffffffffffffffffffffffffffffffffffffff168373ffffffffffffffffffffffffffffffffffffffff1603611c9757806040517f7e273289000000000000000000000000000000000000000000000000000000008152600401611c8e91906121c5565b60405180910390fd5b81816040517f177e802f000000000000000000000000000000000000000000000000000000008152600401611ccd929190612e04565b60405180910390fd5b505050565b611ce58383611db8565b611cf26000848484611840565b505050565b60008073ffffffffffffffffffffffffffffffffffffffff168373ffffffffffffffffffffffffffffffffffffffff1614158015611daf57508273ffffffffffffffffffffffffffffffffffffffff168473ffffffffffffffffffffffffffffffffffffffff161480611d705750611d6f8484611107565b5b80611dae57508273ffffffffffffffffffffffffffffffffffffffff16611d9683611313565b73ffffffffffffffffffffffffffffffffffffffff16145b5b90509392505050565b600073ffffffffffffffffffffffffffffffffffffffff168273ffffffffffffffffffffffffffffffffffffffff1603611e2a5760006040517f64a0ae92000000000000000000000000000000000000000000000000000000008152600401611e21919061212f565b60405180910390fd5b6000611e388383600061136a565b9050600073ffffffffffffffffffffffffffffffffffffffff168173ffffffffffffffffffffffffffffffffffffffff1614611eac5760006040517f73c6ac6e000000000000000000000000000000000000000000000000000000008152600401611ea3919061212f565b60405180910390fd5b505050565b6040518060e001604052806000815260200160008152602001600080191681526020016000801916815260200160608152602001600073ffffffffffffffffffffffffffffffffffffffff168152602001600081525090565b6000604051905090565b600080fd5b600080fd5b60007fffffffff0000000000000000000000000000000000000000000000000000000082169050919050565b611f5381611f1e565b8114611f5e57600080fd5b50565b600081359050611f7081611f4a565b92915050565b600060208284031215611f8c57611f8b611f14565b5b6000611f9a84828501611f61565b91505092915050565b60008115159050919050565b611fb881611fa3565b82525050565b6000602082019050611fd36000830184611faf565b92915050565b600081519050919050565b600082825260208201905092915050565b60005b83811015612013578082015181840152602081019050611ff8565b60008484015250505050565b6000601f19601f8301169050919050565b600061203b82611fd9565b6120458185611fe4565b9350612055818560208601611ff5565b61205e8161201f565b840191505092915050565b600060208201905081810360008301526120838184612030565b905092915050565b6000819050919050565b61209e8161208b565b81146120a957600080fd5b50565b6000813590506120bb81612095565b92915050565b6000602082840312156120d7576120d6611f14565b5b60006120e5848285016120ac565b91505092915050565b600073ffffffffffffffffffffffffffffffffffffffff82169050919050565b6000612119826120ee565b9050919050565b6121298161210e565b82525050565b60006020820190506121446000830184612120565b92915050565b6121538161210e565b811461215e57600080fd5b50565b6000813590506121708161214a565b92915050565b6000806040838503121561218d5761218c611f14565b5b600061219b85828601612161565b92505060206121ac858286016120ac565b9150509250929050565b6121bf8161208b565b82525050565b60006020820190506121da60008301846121b6565b92915050565b6000806000606084860312156121f9576121f8611f14565b5b600061220786828701612161565b935050602061221886828701612161565b9250506040612229868287016120ac565b9150509250925092565b61223c8161208b565b82525050565b6000819050919050565b61225581612242565b82525050565b600082825260208201905092915050565b600061227782611fd9565b612281818561225b565b9350612291818560208601611ff5565b61229a8161201f565b840191505092915050565b6122ae8161210e565b82525050565b600060e0830160008301516122cc6000860182612233565b5060208301516122df6020860182612233565b5060408301516122f2604086018261224c565b506060830151612305606086018261224c565b506080830151848203608086015261231d828261226c565b91505060a083015161233260a08601826122a5565b5060c083015161234560c0860182612233565b508091505092915050565b6000602082019050818103600083015261236a81846122b4565b905092915050565b61237b81612242565b82525050565b600060e082019050612396600083018a6121b6565b6123a360208301896121b6565b6123b06040830188612372565b6123bd6060830187612372565b81810360808301526123cf8186612030565b90506123de60a0830185612120565b6123eb60c08301846121b6565b98975050505050505050565b60006020828403121561240d5761240c611f14565b5b600061241b84828501612161565b91505092915050565b61242d81611fa3565b811461243857600080fd5b50565b60008135905061244a81612424565b92915050565b6000806040838503121561246757612466611f14565b5b600061247585828601612161565b92505060206124868582860161243b565b9150509250929050565b600080fd5b600080fd5b7f4e487b7100000000000000000000000000000000000000000000000000000000600052604160045260246000fd5b6124d28261201f565b810181811067ffffffffffffffff821117156124f1576124f061249a565b5b80604052505050565b6000612504611f0a565b905061251082826124c9565b919050565b600067ffffffffffffffff8211156125305761252f61249a565b5b6125398261201f565b9050602081019050919050565b82818337600083830152505050565b600061256861256384612515565b6124fa565b90508281526020810184848401111561258457612583612495565b5b61258f848285612546565b509392505050565b600082601f8301126125ac576125ab612490565b5b81356125bc848260208601612555565b91505092915050565b600080600080608085870312156125df576125de611f14565b5b60006125ed87828801612161565b94505060206125fe87828801612161565b935050604061260f878288016120ac565b925050606085013567ffffffffffffffff8111156126305761262f611f19565b5b61263c87828801612597565b91505092959194509250565b61265181612242565b811461265c57600080fd5b50565b60008135905061266e81612648565b92915050565b600080fd5b600080fd5b60008083601f84011261269457612693612490565b5b8235905067ffffffffffffffff8111156126b1576126b0612674565b5b6020830191508360018202830111156126cd576126cc612679565b5b9250929050565b60008060008060008060a087890312156126f1576126f0611f14565b5b60006126ff89828a01612161565b965050602061271089828a016120ac565b955050604061272189828a0161265f565b945050606061273289828a0161265f565b935050608087013567ffffffffffffffff81111561275357612752611f19565b5b61275f89828a0161267e565b92509250509295509295509295565b6000806040838503121561278557612784611f14565b5b600061279385828601612161565b92505060206127a485828601612161565b9150509250929050565b7f4e487b7100000000000000000000000000000000000000000000000000000000600052602260045260246000fd5b600060028204905060018216806127f557607f821691505b602082108103612808576128076127ae565b5b50919050565b60006060820190506128236000830186612120565b61283060208301856121b6565b61283d6040830184612120565b949350505050565b7f546f6b656e206e6f7420666f756e640000000000000000000000000000000000600082015250565b600061287b600f83611fe4565b915061288682612845565b602082019050919050565b600060208201905081810360008301526128aa8161286e565b9050919050565b7f4e6f204e465420666f7220746869732070617065720000000000000000000000600082015250565b60006128e7601583611fe4565b91506128f2826128b1565b602082019050919050565b60006020820190508181036000830152612916816128da565b9050919050565b7f506170657220616c7265616479206d696e746564000000000000000000000000600082015250565b6000612953601483611fe4565b915061295e8261291d565b602082019050919050565b6000602082019050818103600083015261298281612946565b9050919050565b7f53746f7261676520726f6f742072657175697265640000000000000000000000600082015250565b60006129bf601583611fe4565b91506129ca82612989565b602082019050919050565b600060208201905081810360008301526129ee816129b2565b9050919050565b7f4e487b7100000000000000000000000000000000000000000000000000000000600052601160045260246000fd5b6000612a2f8261208b565b91507fffffffffffffffffffffffffffffffffffffffffffffffffffffffffffffffff8203612a6157612a606129f5565b5b600182019050919050565b60008190508160005260206000209050919050565b60006020601f8301049050919050565b600082821b905092915050565b600060088302612ace7fffffffffffffffffffffffffffffffffffffffffffffffffffffffffffffffff82612a91565b612ad88683612a91565b95508019841693508086168417925050509392505050565b6000819050919050565b6000612b15612b10612b0b8461208b565b612af0565b61208b565b9050919050565b6000819050919050565b612b2f83612afa565b612b43612b3b82612b1c565b848454612a9e565b825550505050565b600090565b612b58612b4b565b612b63818484612b26565b505050565b5b81811015612b8757612b7c600082612b50565b600181019050612b69565b5050565b601f821115612bcc57612b9d81612a6c565b612ba684612a81565b81016020851015612bb5578190505b612bc9612bc185612a81565b830182612b68565b50505b505050565b600082821c905092915050565b6000612bef60001984600802612bd1565b1980831691505092915050565b6000612c088383612bde565b9150826002028217905092915050565b612c2182611fd9565b67ffffffffffffffff811115612c3a57612c3961249a565b5b612c4482546127dd565b612c4f828285612b8b565b600060209050601f831160018114612c825760008415612c70578287015190505b612c7a8582612bfc565b865550612ce2565b601f198416612c9086612a6c565b60005b82811015612cb857848901518255600182019150602085019450602081019050612c93565b86831015612cd55784890151612cd1601f891682612bde565b8355505b6001600288020188555050505b505050505050565b6000606082019050612cff6000830186612372565b612d0c6020830185612120565b612d1960408301846121b6565b949350505050565b600081519050919050565b600082825260208201905092915050565b6000612d4882612d21565b612d528185612d2c565b9350612d62818560208601611ff5565b612d6b8161201f565b840191505092915050565b6000608082019050612d8b6000830187612120565b612d986020830186612120565b612da560408301856121b6565b8181036060830152612db78184612d3d565b905095945050505050565b600081519050612dd181611f4a565b92915050565b600060208284031215612ded57612dec611f14565b5b6000612dfb84828501612dc2565b91505092915050565b6000604082019050612e196000830185612120565b612e2660208301846121b6565b939250505056fea26469706673582212204d528f1d85b868d93f15c172cd9f4ef6e1a7e6a290a194665a38bc79a57a312364736f6c63430008140033",
  "linkReferences": {},
  "deployedLinkReferences": {}
}