{
  "_format": "hh-sol-artifact-1",
  "contractName": "PaperAnchor",
  "sourceName": "contracts/PaperAnchor.sol",
  "abi": [
    {
      "anonymous": false,
      "inputs": [
        {
          "indexed": true,
          "internalType": "uint256",
          "name": "paperId",
          "type": "uint256"
        },
        {
          "indexed": false,
          "internalType": "bytes32",
          "name": "articleHash",
          "type": "bytes32"
        },
        {
          "indexed": false,
          "internalType": "uint256",
          "name": "timestamp",
          "type": "uint256"
        }
      ],
      "name": "ArticleAnchored",
      "type": "event"
    },
    {
      "anonymous": false,
      "inputs": [
        {
          "indexed": true,
          "internalType": "uint256",
          "name": "id",
          "type": "uint256"
        },
        {
          "indexed": true,
          "internalType": "bytes32",
          "name": "storageRoot",
          "type": "bytes32"
        },
        {
          "indexed": false,
          "internalType": "bytes32",
          "name": "curationHash",
          "type": "bytes32"
        },
        {
          "indexed": false,
          "internalType": "bytes32",
          "name": "metadataHash",
          "type": "bytes32"
        },
        {
          "indexed": false,
          "internalType": "address",
          "name": "author",
          "type": "address"
        },
        {
          "indexed": false,
          "internalType": "uint256",
          "name": "timestamp",
          "type": "uint256"
        }
      ],
      "name": "PaperAnchored",
      "type": "event"
    },
    {
      "anonymous": false,
      "inputs": [
        {
          "indexed": true,
          "internalType": "uint256",
          "name": "paperId",
          "type": "uint256"
        },
        {
          "indexed": false,
          "internalType": "uint256",
          "name": "citationCount",
          "type": "uint256"
        }
      ],
      "name": "PaperCited",
      "type": "event"
    },
    {
      "inputs": [
        {
          "internalType": "bytes32",
          "name": "storageRoot",
          "type": "bytes32"
        },
        {
          "internalType": "bytes32",
          "name": "curationHash",
          "type": "bytes32"
        },
        {
          "internalType": "bytes32",
          "name": "metadataHash",
          "type": "bytes32"
        }
      ],
      "name": "anchorPaper",
      "outputs": [
        {
          "internalType": "uint256",
          "name": "",
          "type": "uint256"
        }
      ],
      "stateMutability": "nonpayable",
      "type": "function"
    },
    {
      "inputs": [
        {
          "internalType": "address",
          "name": "",
          "type": "address"
        },
        {
          "internalType": "uint256",
          "name": "",
          "type": "uint256"
        }
      ],
      "name": "authorPapers",
      "outputs": [
        {
          "internalType": "uint256",
          "name": "",
          "type": "uint256"
        }
      ],
      "stateMutability": "view",
      "type": "function"
    },
    {
      "inputs": [
        {
          "internalType": "uint256",
          "name": "paperId",
          "type": "uint256"
        }
      ],
      "name": "citePaper",
      "outputs": [],
      "stateMutability": "nonpayable",
      "type": "function"
    },
    {
      "inputs": [
        {
          "internalType": "uint256",
          "name": "paperId",
          "type": "uint256"
        }
      ],
      "name": "getPaper",
      "outputs": [
        {
          "components": [
            {
              "internalType": "uint256",
              "name": "id",
              "type": "uint256"
            },
            {
              "internalType": "bytes32",
              "name": "storageRoot",
              "type": "bytes32"
            },
            {
              "internalType": "bytes32",
              "name": "curationHash",
              "type": "bytes32"
            },
            {
              "internalType": "bytes32",
              "name": "metadataHash",
              "type": "bytes32"
            },
            {
              "internalType": "address",
              "name": "author",
              "type": "address"
            },
            {
              "internalType": "uint256",
              "name": "timestamp",
              "type": "uint256"
            },
            {
              "internalType": "bool",
              "name": "hasArticle",
              "type": "bool"
            },
            {
              "internalType": "uint256",
              "name": "citationCount",
              "type": "uint256"
            }
          ],
          "internalType": "struct PaperAnchor.PaperRecord",
          "name": "",
          "type": "tuple"
        }
      ],
      "stateMutability": "view",
      "type": "function"
    },
    {
      "inputs": [
        {
          "internalType": "bytes32",
          "name": "storageRoot",
          "type": "bytes32"
        }
      ],
      "name": "getPaperByRoot",
      "outputs": [
        {
          "components": [
            {
              "internalType": "uint256",
              "name": "id",
              "type": "uint256"
            },
            {
              "internalType": "bytes32",
              "name": "storageRoot",
              "type": "bytes32"
            },
            {
              "internalType": "bytes32",
              "name": "curationHash",
              "type": "bytes32"
            },
            {
              "internalType": "bytes32",
              "name": "metadataHash",
              "type": "bytes32"
            },
            {
              "internalType": "address",
              "name": "author",
              "type": "address"
            },
            {
              "internalType": "uint256",
              "name": "timestamp",
              "type": "uint256"
            },
            {
              "internalType": "bool",
              "name": "hasArticle",
              "type": "bool"
            },
            {
              "internalType": "uint256",
              "name": "citationCount",
              "type": "uint256"
            }
          ],
          "internalType": "struct PaperAnchor.PaperRecord",
          "name": "",
          "type": "tuple"
        }
      ],
      "stateMutability": "view",
      "type": "function"
    },
    {
      "inputs": [
        {
          "internalType": "address",
          "name": "author",
          "type": "address"
        }
      ],
      "name": "getPapersByAuthor",
      "outputs": [
        {
          "internalType": "uint256[]",
          "name": "",
          "type": "uint256[]"
        }
      ],
      "stateMutability": "view",
      "type": "function"
    },
    {
      "inputs": [],
      "name": "nextId",
      "outputs": [
        {
          "internalType": "uint256",
          "name": "",
          "type": "uint256"
        }
      ],
      "stateMutability": "view",
      "type": "function"
    },
    {
      "inputs": [
        {
          "internalType": "uint256",
          "name": "",
          "type": "uint256"
        }
      ],
      "name": "records",
      "outputs": [
        {
          "internalType": "uint256",
          "name": "id",
          "type": "uint256"
        },
        {
          "internalType": "bytes32",
          "name": "storageRoot",
          "type": "bytes32"
        },
        {
          "internalType": "bytes32",
          "name": "curationHash",
          "type": "bytes32"
        },
        {
          "internalType": "bytes32",
          "name": "metadataHash",
          "type": "bytes32"
        },
        {
          "internalType": "address",
          "name": "author",
          "type": "address"
        },
        {
          "internalType": "uint256",
          "name": "timestamp",
          "type": "uint256"
        },
        {
          "internalType": "bool",
          "name": "hasArticle",
          "type": "bool"
        },
        {
          "internalType": "uint256",
          "name": "citationCount",
          "type": "uint256"
        }
      ],
      "stateMutability": "view",
      "type": "function"
    },
    {
      "inputs": [
        {
          "internalType": "bytes32",
          "name": "",
          "type": "bytes32"
        }
      ],
      "name": "rootToId",
      "outputs": [
        {
          "internalType": "uint256",
          "name": "",
          "type": "uint256"
        }
      ],
      "stateMutability": "view",
      "type": "function"
    },
    {
      "inputs": [
        {
          "internalType": "uint256",
          "name": "paperId",
          "type": "uint256"
        },
        {
          "internalType": "bytes32",
          "name": "articleHash",
          "type": "bytes32"
        }
      ],
      "name": "setArticle",
      "outputs": [],
      "stateMutability": "nonpayable",
      "type": "function"
    },
    {
      "inputs": [
        {
          "internalType": "uint256",
          "name": "paperId",
          "type": "uint256"
        },
        {
          "internalType": "bytes32",
          "name": "storageRoot",
          "type": "bytes32"
        }
      ],
      "name": "verifyPaper",
      "outputs": [
        {
          "internalType": "bool",
          "name": "",
          "type": "bool"
        }
      ],
      "stateMutability": "view",
      "type": "function"
    }
  ],
  "bytecode": "0x608060405234801561001057600080fd5b50611251806100206000396000f3fe608060405234801561001057600080fd5b50600436106100a95760003560e01c80635d8573c6116100715780635d8573c61461019157806361b8ce8c146101c1578063859fdfd3146101df578063a8ab6180146101fb578063b94dab181461022b578063c2ab96ea1461025b576100a9565b806307993f04146100ae57806334461067146100de5780633980c591146101155780634de6cf5b1461014557806351cec0d214610161575b600080fd5b6100c860048036038101906100c39190610b2c565b61028b565b6040516100d59190610c7f565b60405180910390f35b6100f860048036038101906100f39190610b2c565b6103bf565b60405161010c989796959493929190610cd7565b60405180910390f35b61012f600480360381019061012a9190610d81565b610434565b60405161013c9190610dc1565b60405180910390f35b61015f600480360381019061015a9190610d81565b610457565b005b61017b60048036038101906101769190610ddc565b61055f565b6040516101889190610e09565b60405180910390f35b6101ab60048036038101906101a69190610ddc565b610577565b6040516101b89190610c7f565b60405180910390f35b6101c96106ae565b6040516101d69190610e09565b60405180910390f35b6101f960048036038101906101f49190610b2c565b6106b4565b005b61021560048036038101906102109190610e50565b61078a565b6040516102229190610e09565b60405180910390f35b61024560048036038101906102409190610e90565b6107bb565b6040516102529190610e09565b60405180910390f35b61027560048036038101906102709190610ee3565b6109f4565b6040516102829190610fbf565b60405180910390f35b610293610a8b565b60006001600084815260200190815260200160002060000154036102ec576040517f08c379a00000000000000000000000000000000000000000000000000000000081526004016102e39061103e565b60405180910390fd5b6001600083815260200190815260200160002060405180610100016040529081600082015481526020016001820154815260200160028201548152602001600382015481526020016004820160009054906101000a900473ffffffffffffffffffffffffffffffffffffffff1673ffffffffffffffffffffffffffffffffffffffff1673ffffffffffffffffffffffffffffffffffffffff168152602001600582015481526020016006820160009054906101000a900460ff161515151581526020016007820154815250509050919050565b60016020528060005260406000206000915090508060000154908060010154908060020154908060030154908060040160009054906101000a900473ffffffffffffffffffffffffffffffffffffffff16908060050154908060060160009054906101000a900460ff16908060070154905088565b600081600160008581526020019081526020016000206001015414905092915050565b600060016000848152602001908152602001600020905060008160000154036104b5576040517f08c379a00000000000000000000000000000000000000000000000000000000081526004016104ac9061103e565b60405180910390fd5b6000801b82036104fa576040517f08c379a00000000000000000000000000000000000000000000000000000000081526004016104f1906110aa565b60405180910390fd5b81816002018190555060018160060160006101000a81548160ff021916908315150217905550827f3ffed29290120fd3440b7546402b9f8b80bbb6f693594573df3076161b01417883426040516105529291906110ca565b60405180910390a2505050565b60036020528060005260406000206000915090505481565b61057f610a8b565b600060036000848152602001908152602001600020549050600081036105da576040517f08c379a00000000000000000000000000000000000000000000000000000000081526004016105d19061103e565b60405180910390fd5b6001600082815260200190815260200160002060405180610100016040529081600082015481526020016001820154815260200160028201548152602001600382015481526020016004820160009054906101000a900473ffffffffffffffffffffffffffffffffffffffff1673ffffffffffffffffffffffffffffffffffffffff1673ffffffffffffffffffffffffffffffffffffffff168152602001600582015481526020016006820160009054906101000a900460ff16151515158152602001600782015481525050915050919050565b60005481565b600060016000838152602001908152602001600020600001540361070d576040517f08c379a00000000000000000000000000000000000000000000000000000000081526004016107049061103e565b60405180910390fd5b60016000828152602001908152602001600020600701600081548092919061073490611122565b9190505550807fa547c4f572360bbecfdfdc9f6f5ff2138250357bf7d4374e23eb4327e360b9eb600160008481526020019081526020016000206007015460405161077f9190610e09565b60405180910390a250565b600260205281600052604060002081815481106107a657600080fd5b90600052602060002001600091509150505481565b60008060001b8403610802576040517f08c379a00000000000000000000000000000000000000000000000000000000081526004016107f9906111b6565b60405180910390fd5b6000806000815461081290611122565b91905081905590506040518061010001604052808281526020018681526020018581526020018481526020013373ffffffffffffffffffffffffffffffffffffffff1681526020014281526020016000801b861415151581526020016000815250600160008381526020019081526020016000206000820151816000015560208201518160010155604082015181600201556060820151816003015560808201518160040160006101000a81548173ffffffffffffffffffffffffffffffffffffffff021916908373ffffffffffffffffffffffffffffffffffffffff16021790555060a0820151816005015560c08201518160060160006101000a81548160ff02191690831515021790555060e08201518160070155905050600260003373ffffffffffffffffffffffffffffffffffffffff1673ffffffffffffffffffffffffffffffffffffffff16815260200190815260200160002081908060018154018082558091505060019003906000526020600020016000909190919091505580600360008781526020019081526020016000208190555084817f4314e72e013a1832ce078021359f43aa73ae9f8bc02a0f3008ef960293b2e6eb868633426040516109e194939291906111d6565b60405180910390a3809150509392505050565b6060600260008373ffffffffffffffffffffffffffffffffffffffff1673ffffffffffffffffffffffffffffffffffffffff168152602001908152602001600020805480602002602001604051908101604052809291908181526020018280548015610a7f57602002820191906000526020600020905b815481526020019060010190808311610a6b575b50505050509050919050565b60405180610100016040528060008152602001600080191681526020016000801916815260200160008019168152602001600073ffffffffffffffffffffffffffffffffffffffff16815260200160008152602001600015158152602001600081525090565b600080fd5b6000819050919050565b610b0981610af6565b8114610b1457600080fd5b50565b600081359050610b2681610b00565b92915050565b600060208284031215610b4257610b41610af1565b5b6000610b5084828501610b17565b91505092915050565b610b6281610af6565b82525050565b6000819050919050565b610b7b81610b68565b82525050565b600073ffffffffffffffffffffffffffffffffffffffff82169050919050565b6000610bac82610b81565b9050919050565b610bbc81610ba1565b82525050565b60008115159050919050565b610bd781610bc2565b82525050565b61010082016000820151610bf46000850182610b59565b506020820151610c076020850182610b72565b506040820151610c1a6040850182610b72565b506060820151610c2d6060850182610b72565b506080820151610c406080850182610bb3565b5060a0820151610c5360a0850182610b59565b5060c0820151610c6660c0850182610bce565b5060e0820151610c7960e0850182610b59565b50505050565b600061010082019050610c956000830184610bdd565b92915050565b610ca481610af6565b82525050565b610cb381610b68565b82525050565b610cc281610ba1565b82525050565b610cd181610bc2565b82525050565b600061010082019050610ced600083018b610c9b565b610cfa602083018a610caa565b610d076040830189610caa565b610d146060830188610caa565b610d216080830187610cb9565b610d2e60a0830186610c9b565b610d3b60c0830185610cc8565b610d4860e0830184610c9b565b9998505050505050505050565b610d5e81610b68565b8114610d6957600080fd5b50565b600081359050610d7b81610d55565b92915050565b60008060408385031215610d9857610d97610af1565b5b6000610da685828601610b17565b9250506020610db785828601610d6c565b9150509250929050565b6000602082019050610dd66000830184610cc8565b92915050565b600060208284031215610df257610df1610af1565b5b6000610e0084828501610d6c565b91505092915050565b6000602082019050610e1e6000830184610c9b565b92915050565b610e2d81610ba1565b8114610e3857600080fd5b50565b600081359050610e4a81610e24565b92915050565b60008060408385031215610e6757610e66610af1565b5b6000610e7585828601610e3b565b9250506020610e8685828601610b17565b9150509250929050565b600080600060608486031215610ea957610ea8610af1565b5b6000610eb786828701610d6c565b9350506020610ec886828701610d6c565b9250506040610ed986828701610d6c565b9150509250925092565b600060208284031215610ef957610ef8610af1565b5b6000610f0784828501610e3b565b91505092915050565b600081519050919050565b600082825260208201905092915050565b6000819050602082019050919050565b6000610f488383610b59565b60208301905092915050565b6000602082019050919050565b6000610f6c82610f10565b610f768185610f1b565b9350610f8183610f2c565b8060005b83811015610fb2578151610f998882610f3c565b9750610fa483610f54565b925050600181019050610f85565b5085935050505092915050565b60006020820190508181036000830152610fd98184610f61565b905092915050565b600082825260208201905092915050565b7f5061706572206e6f7420666f756e640000000000000000000000000000000000600082015250565b6000611028600f83610fe1565b915061103382610ff2565b602082019050919050565b600060208201905081810360008301526110578161101b565b9050919050565b7f41727469636c6520686173682072657175697265640000000000000000000000600082015250565b6000611094601583610fe1565b915061109f8261105e565b602082019050919050565b600060208201905081810360008301526110c381611087565b9050919050565b60006040820190506110df6000830185610caa565b6110ec6020830184610c9b565b9392505050565b7f4e487b7100000000000000000000000000000000000000000000000000000000600052601160045260246000fd5b600061112d82610af6565b91507fffffffffffffffffffffffffffffffffffffffffffffffffffffffffffffffff820361115f5761115e6110f3565b5b600182019050919050565b7f53746f7261676520726f6f742072657175697265640000000000000000000000600082015250565b60006111a0601583610fe1565b91506111ab8261116a565b602082019050919050565b600060208201905081810360008301526111cf81611193565b9050919050565b60006080820190506111eb6000830187610caa565b6111f86020830186610caa565b6112056040830185610cb9565b6112126060830184610c9b565b9594505050505056fea264697066735822122083a75327edaee94cd5ce500036d313fa86387d1ec77705dd7cee4f28410c217964736f6c63430008140033",
  "linkReferences": {},
  "deployedLinkReferences": {}
}